:02000002B0004C
:1040000000400B00EC510B00000006000C00050204
:084010000401E50C00000000B2
:04401800EC4E0B005F
:10401C0009480A49884208B505D0094A824202D0AB
:10402C00121A00F0AAFE0748074A0021121A00F0E3
:10403C00B2FE014808BD00BF4CE6032058510B00EE
:10404C00B8E60320B8E60320EDE7032070B5074E71
:10405C00074C00F0C3FCA41BA4080025AC4200D103
:10406C0070BD56F8043B98470135F7E708510B0033
:10407C0028510B0000F013B808B500F019F8BDE892
:10408C00084000F063BC00F0A3B900F0A9B90078B7
:10409C00B0FA80F04009704701230370704708B5EF
:1040AC0000F094FBBDE808404FF4E13100F082BB16
:1040BC0010B500F08BFB0446132000F04BFE0A22D7
:1040CC000146204600F00BFD2046BDE8104000F0F4
:1040DC00FABC000008B5024B1B681B68019308BDB5
:1040EC004C02030008B5024B1B685B68019308BDCA
:1040FC004C02030008B5024B1B681B69019308BDF9
:10410C004C02030008B5024B1B685B69019308BDA8
:10411C004C02030008B5024B1B689B69019308BD58
:10412C004C02030008B5024B1B68DB69019308BD08
:10413C004C02030008B5024B1B681B6A019308BDB7
:10414C004C02030008B5024B1B681B6A019308BDA7
:10415C002802030008B5024B1B685B6A019308BD7B
:10416C002802030008B5024B1B689B6A019308BD2B
:10417C002802030008B5024B1B68DB6A019308BDDB
:10418C002802030008B5024B1B681B6B019308BD8A
:10419C002802030008B5024B1B685B6B019308BD3A
:1041AC002802030008B5024B1B681B6C019308BD69
:1041BC002802030008B5024B1B68DB69019308BD9C
:1041CC003002030008B5024B1B681B6A019308BD43
:1041DC003002030008B5024B1B68DB68019308BD75
:1041EC003C02030008B5024B1B681B69019308BD18
:1041FC003C02030008B5024B1B685B69019308BDC8
:10420C003C02030008B5024B1B689B69019308BD77
:10421C003C02030008B5024B1B68DB69019308BD27
:10422C003C02030008B5024B1B681B6A019308BDD6
:10423C003C02030008B5024B1B689B6A019308BD46
:10424C003C02030008B5024B1B681B6C019308BDB4
:10425C003C02030008B5024B1B685B69019308BD67
:10426C006402030008B5024B1B685B6C019308BD2C
:10427C004802030008B5024B1B685B68019308BD3C
:10428C001802030008B5024B1B685B69019308BD5B
:10429C001802030008B5034B1B68D3F88830019350
:1042AC0008BD00002C02030008B5024B1B689B687C
:1042BC00019308BD6802030008B5024B1B68DB685C
:1042CC00019308BD6802030008B5024B1B68DB6B49
:1042DC00019308BD4402030008B5024B1B685B68E0
:1042EC00019308BD4002030008B5024B1B689B6894
:1042FC00019308BD4002030008B5024B1B68DB6844
:10430C00019308BD4002030008B5024B1B681B69F2
:10431C00019308BD4002030008B5024B1B685B69A2
:10432C00019308BD4002030008B5024B1B689B6952
:10433C00019308BD4002030008B5024B1B68DB6902
:10434C00019308BD4002030008B5024B1B681B6AB1
:10435C00019308BD4002030008B5024B1B681B6BA0
:10436C00019308BD4002030008B5024B1B685B6B50
:10437C00019308BD4002030008B5024B1B681B6C7F
:10438C00019308BD4002030008B5024B1B685B6C2F
:10439C00019308BD4002030008B5024B1B685B6823
:1043AC00019308BD2002030008B5034B1B68D3F82A
:1043BC008830019308BD00002002030008B5034BB0
:1043CC001B68D3F89430019308BD00002002030051
:1043DC0008B5024B1B681B68019308BD1C02030047
:1043EC0008B5024B1B685B68019308BD1C020300F7
:1043FC0008B5024B1B681B6C019308BD1C02030023
:10440C0008B5024B1B685B6C019308BD1C020300D2
:10441C00002340681A46FFF75FBF40680022022164
:10442C00FFF76ABF002240681146FFF75DBF00220C
:10443C0040681146FFF768BF002340681A461946CA
:10444C00FFF76ABF002340681A461946FFF76CBF96
:10445C0040680021FFF790BF40680021FFF794BF30
:10446C004068002281F00101FFF766BF406800221E
:10447C00FFF772BF002240681146FFF775BF00229C
:10448C0040681146FFF760BF2DE9F04395B0144624
:10449C000D46074600F0FAF900211C220DA80091E8
:1044AC0000F079FC40230C9320466B460CAA0021AB
:1044BC00FFF702FF044600284BD102460121686831
:1044CC00FFF722FF0221804622466868FFF71CFF97
:1044DC00009E81462146002E3BD0002939D17368BD
:1044EC00022B03D00A2B11D0F669F4E7B8F1000FB8
:1044FC00FAD0716906A8043107AD00F0F5F90FCDBB
:10450C003C1D0FC42B6823704146EDE7B9F1000F39
:10451C00EAD07469102201A800F03DFC06238DF846
:10452C00143001AD04F108031834186859682A4690
:10453C0003C20833A3421546F7D101A906A807AD5B
:10454C0000F0B2F90FCD3C1D0FC42B682370494607
:10455C00CAE70098FFF7A8FE384615B0BDE8F0830F
:10456C00024B034A1A6000225A607047B8E60320D7
:10457C00084F0B00002240681146FFF7C5BE002211
:10458C0040681146FFF7E0BE002240681146FFF775
:10459C00EBBE40680022FFF7DFBE4068002281F0CE
:1045AC000101FFF7C9BE002340681A461946FFF700
:1045BC00BBBE002340681A461946FFF7ADBE002269
:1045CC0040681146FFF790BE406800220221FFF7B9
:1045DC0093BE002340681A46FFF77EBE024B0422AE
:1045EC005A60024A1A607047C0E60320444F0B0021
:1045FC0070474174704708B5007CFFF71BFE20EA3A
:10460C00E07008BD08B5007CFFF7ECFD20EAE07017
:10461C0008BD08B5007CFFF7F5FD40EAE07008BD69
:10462C0008B5007CFFF7E6FD40EAE07008BD007CB1
:10463C00FFF7F0BD37B5457C04462DB1207C03B0A7
:10464C00BDE83040FFF7C6BD007C0191FFF7F2FDDD
:10465C0000280199F2DC284603B030BD10B51421B6
:10466C000446FFF712FD204610BD000010B54FF4B4
:10467C007A730446084611460022C4E90123044B10
:10468C002360012320746374FFF7DCFD204610BD0A
:10469C00804F0B007047F8B5064615460C468F1830
:1046AC00BC4206D0336814F8011B9B68304698470F
:1046BC00F6E72846F8BD007C0022FFF743BD007CDE
:1046CC000021FFF747BD007C0021FFF74BBD007CAC
:1046DC000021FFF74FBD007C0021FFF753BD10B543
:1046EC0014210446FFF7D1FC204610BD10B54FF441
:1046FC007A73044608460021C4E90113034B236076
:10470C0020741146FFF74EFD204610BDB04F0B0034
:10471C00417470477047704708B50021007CFFF763
:10472C00F9FC40EAE07008BD08B50121007CFFF7F8
:10473C00F1FC40EAE07008BD08B5007CFFF7E2FC34
:10474C0020EAE07008BD08B5007CFFF7D3FC20EA36
:10475C00E07008BD13B50446007C0191FFF7D2FC54
:10476C000028019901DC607C20B1207CFFF7DAFC89
:10477C0020EAE07002B010BD007CFFF7DBBC10B586
:10478C0014210446FFF781FC204610BD10B54FF4F0
:10479C007A73044608460021C4E90113044B2360D4
:1047AC000123207463741146FFF794FC204610BD5E
:1047BC00D84F0B00007C0022FFF794BC10B51422DC
:1047CC000446002100F0E7FA204610BD10B50F4C4E
:1047DC0088B003A8FFF7F2FF2178BFF35B8F11F0CD
:1047EC0001010FD120460191FFF751FC019948B10D
:1047FC0003AA0748FFF7CAFF2046FFF74DFC054800
:10480C0000F0B5FA024808B010BD00BFC8E603209E
:10481C00CCE6032021470B00704710B51821044645
:10482C00FFF733FC204610BDF0B5037D062B8DB091
:10483C000E4600F104074FF0000412D000F10805F9
:10484C0015F8011D0A22304600F049F9AF42044424
:10485C0019D0002CF4D02E21304600F031F904444C
:10486C00EEE72F236A4639460A208DF80040FFF701
:10487C00F1FC684600F0C6FA33680246DB6869460C
:10488C0030469847044620460DB0F0BD10B5054B98
:10489C000446112240F8043B002100F07CFA20462B
:1048AC0010BD00BF08500B000346074A10B543F873
:1048BC00042B01F1100251F8044B43F8044B9142C4
:1048CC00F9D10A781A7010BD08500B0010B59DF87C
:1048DC00084044EA032343EA024242EA016104230A
:1048EC004160037510BD000007B5064B0360CB7823
:1048FC0000938B784A780978FFF7E8FF03B05DF8EE
:10490C0004FB00BF08500B00014B1860704700BF40
:10491C0050E6032008B50B4B43B1FFF757FF036874
:10492C001B699847002801DDAFF30080064B43B1AB
:10493C0000F0AEF903681B699847002801DDAFF35E
:10494C00008008BD000000000000000008B5FFF763
:10495C00E1FFFFF797FC014B186008BD34E703201B
:10496C000548064A064908B5121A00F006FA054B26
:10497C00054A1A6008BD00BF00F4032004F40320AC
:10498C0054510B0000F403201E1C279A07B500237A
:10499C0000931A466FF07701FFF710FD03B05DF836
:1049AC0004FB000007B543880A2B08D0502B0BD111
:1049BC00094B1B684BB103B05DF804EB1847FFF7CC
:1049CC00E5FF03B05DF804FB002300931A466FF07B
:1049DC007701FFF7F3FCF4E7E4E6032010B5124887
:1049EC000021FFF70DFD114B1A68114B9A42114B28
:1049FC000CBF012200221A7001D0FFF7B1FFFFF7A4
:104A0C0039FC044600F0D0F90B4B13B12046AFF340
:104A1C00008000210848FFF757FCBDE8104007480C
:104A2C000021FFF7C1BC00BF15490B0000F40320A7
:104A3C001E1C279AE0E6032000000000B1490B0081
:104A4C00014B00229A607047E8E60320024B1A687B
:104A5C00024B1A60704700BF4CE60320F8E60320B7
:104A6C00014B024A1A607047FCE6032030500B00E1
:104A7C00F8B506460D468F180024BD420CD033689D
:104A8C0015F8011B9B6830469847031E01DB1C443C
:104A9C00F3E7002C08BF1C462046F8BD13B50446AE
:104AAC00084659B1019100F0ADF923680199DB6812
:104ABC000246204602B0BDE81040184702B010BDB7
:104ACC0003689B68184738B50D210546FFF7F8FFBA
:104ADC000A2104462846FFF7F3FF204438BD30B5C1
:104AEC008BB00023012A8DF8243098BF0A2209AC20
:104AFC000D46B1FBF2F101FB125303F0FF03092B3E
:104B0C0094BF30333733DBB2AA4204F8013DEFD9FE
:104B1C002146FFF7C3FF0BB030BD00000248002355
:104B2C000360FFF79FBB00BF00E70320054B022289
:104B3C001A60054B054A9A600020C3E90000FFF794
:104B4C002BBC00BF10E7032004E703200000FFFF8D
:104B5C0010B5044608462170FFF72CFB0023636058
:104B6C00204610BD002240681146FFF7EDBB002225
:104B7C0040681146FFF7F8BB40680022FFF7ECBB1A
:104B8C004068002281F00101FFF7D6BB002340688A
:104B9C001A461946FFF7C8BB002340681A46194647
:104BAC00FFF7BABB002240681146FFF7ADBB0022ED
:104BBC0040681146FFF798BB406800220221FFF7BE
:104BCC009BBB002340681A46FFF786BB024B0322AF
:104BDC005A60024A1A60704714E703203C500B00DD
:104BEC007047000038B52025142304460360856007
:104BFC0005610649284600F0B8F80449606028466B
:104C0C0000F0B3F8E060204638BD00BF70500B00D8
:104C1C0030B50E4D2978BFF35B8F11F0010487B0CE
:104C2C0011D12846FFF733FA68B101A8FFF7DAFF74
:104C3C0001AA21460648FFF759FD2846FFF72CFA32
:104C4C00044800F094F8024807B030BD1CE703207C
:104C5C0020E70320ED4B0B007047000038B50446ED
:104C6C0014252A46002100F096F825804025074996
:104C7C0025812846258200F078F804496060284692
:104C8C0000F073F8E060204638BD00BF70500B0098
:104C9C0030B50E4D2978BFF35B8F11F0010487B04E
:104CAC0011D12846FFF7F3F968B101A8FFF7D6FF39
:104CBC0001AA21460648FFF7D9FC2846FFF7ECF974
:104CCC00044800F054F8024807B030BD38E7032020
:104CDC003CE70320654C0B00232813B502D90020B8
:104CEC0002B010BDA0F10B03022B1AD8174C21787F
:104CFC00BFF35B8F11F001010BD120460191FFF73F
:104D0C00C6F9019928B11248FFF722FF2046FFF798
:104D1C00C3F90F4B1878FFF755FA0028DFD10120A3
:104D2C00DEE7012809D8FFF773FF0021007CFFF7AD
:104D3C0031FA80F00100C0B2D2E709380128EED870
:104D4C00FFF7A6FF007CFFF76DFAF2E750E70320B0
:104D5C0054E7032010B50446FFF7BEFF20B12046F0
:104D6C00BDE81040FFF796BA10BDFFF78CB90023D1
:104D7C0001461A46184600F04DB80A44914200F11B
:104D8C00FF3300D1704710B511F8014B03F8014FF8
:104D9C009142F9D110BD02440346934200D17047B1
:104DAC0003F8011BF9E7000038B5104B1D68AB6B1D
:104DBC000446B3B91820FFF70BFB0246A86320B9D1
:104DCC000B4B0C484221FFF713FB0B490B4BC0E973
:104DDC0000130B4B83600B23838100210120C2E95C
:104DEC000401AB6B00221C615A6138BD50E60320F4
:104DFC0071500B0088500B000E33CDAB34126DE6A6
:104E0C00ECDE0500034613F8012B002AFBD1181A1F
:104E1C00013870472DE9F843DFF8B8800646D8F81A
:104E2C0000001F460D46914600F056F8254B1C68B5
:104E3C0034B9254C1C60254B13B11B68C4F8883061
:104E4C0063681F2B07DDD8F8000000F047F84FF01F
:104E5C00FF30BDE8F8834EB3D4F8880088B91C4BFA
:104E6C0023B9D8F8000000F038F8F0E74FF484705C
:104E7C00FFF7AEFA0028F4D00023C0E94033C4F8A1
:104E8C008800636840F8239001229A4000EB83016C
:104E9C00D0F800311343C0F80031022EC1F88070F5
:104EAC0002BFD0F804311343C0F804316368D8F85A
:104EBC0000005A1C0233626044F8235000F00EF8D4
:104ECC000020C6E7E8E703205CE7032000000000B1
:104EDC00DD430B00B4E603207047704770470000B9
:104EEC001D400B0059400B0081400B0085400B000E
:104EFC000000000000000000000000001D440B003A
:104F0C0027440B0031440B003B440B0045440B0081
:104F1C0051440B005D440B0065440B006D440B00C9
:104F2C0079440B0081440B008B440B0095440B001F
:104F3C000000000000000000DF450B00D5450B0011
:104F4C00CB450B0081450B00BF450B00B3450B0057
:104F5C005D440B0065440B00A7450B009F450B00FF
:104F6C0095450B008B450B0095440B000000000091
:104F7C0000000000FD450B0069460B0041460B008C
:104F8C007D4A0B0011460B002D460B001F460B00F3
:104F9C003B460B00FF450B0003460B0000000000D6
:104FAC0000000000A1460B00EB460B00C3460B00B3
:104FBC00A3460B00CB460B00D3460B00DB460B0085
:104FCC00E3460B00000000000000000023470B002C
:104FDC008B470B0061470B007D4A0B0053470B00BE
:104FEC0025470B0035470B0085470B0045470B0049
:104FFC001D470B00000000000000000035480B00AE
:10500C0025480B0027480B0025592D256D2D2564AF
:10501C005425483A254D3A2553257A00617363741B
:10502C00696D6500617070000000000000000000F8
:10503C00CF4B0B00C54B0B00BB4B0B00B14B0B000C
:10504C00A54B0B00994B0B005D440B0065440B000A
:10505C008D4B0B00854B0B007B4B0B00714B0B00EE
:10506C0095440B00005245454E54206D616C6C6F9D
:10507C006320737563636565646564002F6D6E747E
:10508C002F776F726B73706163652F776F726B73B1
:10509C00706163652F4743432D31302D7069706506
:1050AC006C696E652F6A656E6B696E732D47434331
:1050BC002D31302D706970656C696E652D34385FDB
:1050CC0032303230313132345F3136303631383083
:1050DC003634312F7372632F6E65776C69622F6E65
:1050EC0065776C69622F6C6962632F7374646C6989
:1050FC00622F72616E642E63000000006D450B0020
:10510C00E9450B004D4A0B00594A0B006D4A0B0048
:10511C00294B0B00394B0B00D94B0B000000000046
:04512C00000000007F
:10513000040000001400000003000000474E55006A
:105140004AA388BAE84909C1A0749B57B6E33B0754
:045150003D99E05451
:045154000000000057
:1051580028500B0054E60320000000000000000067
:105168000000000000000000000000000000000037
:105178000000000000000000000000000000000027
:105188000000000000000000000000000000000017
:105198000000000000000000000000000000000007
:1051A80000000000000000000000000000000000F7
:0C51B8000000000000000000ECE70320F5
:1051C400FFFFFFFF00000102030405060708090AA8
:1051D4000B0C0D0E0F101112131415161718191AA3
:0851E4001B1C1D1E1F202800EA
:0451EC0078563412AB
:04000003B000401CED
:00000001FF
